{
  "contractName": "Contribution",
  "abi": [
    {
      "inputs": [
        {
          "internalType": "contract Token",
          "name": "_token",
          "type": "address"
        }
      ],
      "stateMutability": "nonpayable",
      "type": "constructor"
    },
    {
      "anonymous": false,
      "inputs": [
        {
          "indexed": false,
          "internalType": "address",
          "name": "userAddress",
          "type": "address"
        },
        {
          "indexed": false,
          "internalType": "uint256",
          "name": "amountEther",
          "type": "uint256"
        },
        {
          "indexed": false,
          "internalType": "uint256",
          "name": "tokens",
          "type": "uint256"
        }
      ],
      "name": "donateEtherEvent",
      "type": "event"
    },
    {
      "inputs": [
        {
          "internalType": "address",
          "name": "",
          "type": "address"
        }
      ],
      "name": "userEther",
      "outputs": [
        {
          "internalType": "uint256",
          "name": "",
          "type": "uint256"
        }
      ],
      "stateMutability": "view",
      "type": "function",
      "constant": true
    },
    {
      "inputs": [],
      "name": "donateEther",
      "outputs": [],
      "stateMutability": "payable",
      "type": "function",
      "payable": true
    },
    {
      "inputs": [
        {
          "internalType": "address",
          "name": "userAddress",
          "type": "address"
        }
      ],
      "name": "getUserAmount",
      "outputs": [
        {
          "internalType": "uint256",
          "name": "",
          "type": "uint256"
        }
      ],
      "stateMutability": "view",
      "type": "function",
      "constant": true
    }
  ],
  "bytecode": "0x608060405234801561001057600080fd5b5060405161056e38038061056e8339818101604052602081101561003357600080fd5b8101908080519060200190929190505050806000806101000a81548173ffffffffffffffffffffffffffffffffffffffff021916908373ffffffffffffffffffffffffffffffffffffffff160217905550506104da806100946000396000f3fe6080604052600436106100345760003560e01c8063327a943a146100395780637031fcbe1461009e578063863451dd14610103575b600080fd5b34801561004557600080fd5b506100886004803603602081101561005c57600080fd5b81019080803573ffffffffffffffffffffffffffffffffffffffff16906020019092919050505061010d565b6040518082815260200191505060405180910390f35b3480156100aa57600080fd5b506100ed600480360360208110156100c157600080fd5b81019080803573ffffffffffffffffffffffffffffffffffffffff169060200190929190505050610156565b6040518082815260200191505060405180910390f35b61010b61016e565b005b6000600160008373ffffffffffffffffffffffffffffffffffffffff1673ffffffffffffffffffffffffffffffffffffffff168152602001908152602001600020549050919050565b60016020528060005260406000206000915090505481565b600034116101c7576040517f08c379a00000000000000000000000000000000000000000000000000000000081526004018080602001828103825260238152602001806104826023913960400191505060405180910390fd5b61021934600160003373ffffffffffffffffffffffffffffffffffffffff1673ffffffffffffffffffffffffffffffffffffffff168152602001908152602001600020546103f990919063ffffffff16565b600160003373ffffffffffffffffffffffffffffffffffffffff1673ffffffffffffffffffffffffffffffffffffffff1681526020019081526020016000208190555060008054906101000a900473ffffffffffffffffffffffffffffffffffffffff1673ffffffffffffffffffffffffffffffffffffffff166340c10f1933346040518363ffffffff1660e01b8152600401808373ffffffffffffffffffffffffffffffffffffffff16815260200182815260200192505050602060405180830381600087803b1580156102ed57600080fd5b505af1158015610301573d6000803e3d6000fd5b505050506040513d602081101561031757600080fd5b810190808051906020019092919050505061039a576040517f08c379a00000000000000000000000000000000000000000000000000000000081526004018080602001828103825260148152602001807f536f6d657468696e672077656e742077726f6e6700000000000000000000000081525060200191505060405180910390fd5b7ffda273d99b25c4c6a31f988148bcb951311e7bbd0f8e07f84266e9677885c747333434604051808473ffffffffffffffffffffffffffffffffffffffff168152602001838152602001828152602001935050505060405180910390a1565b600080828401905083811015610477576040517f08c379a000000000000000000000000000000000000000000000000000000000815260040180806020018281038252601b8152602001807f536166654d6174683a206164646974696f6e206f766572666c6f77000000000081525060200191505060405180910390fd5b809150509291505056fe506c6561736520646f6e61746520612076616c696420616d6f756e74206f6620455448a26469706673582212203e42d9108073192b7f20f59db567ec5e0096083779621c896bd6da1cd16ee73664736f6c63430007060033",
  "immutableReferences": {},
  "source": "pragma solidity >=0.6.0 <0.8.0;\n\nimport './Token.sol';\nimport \"@openzeppelin/contracts/math/SafeMath.sol\";\n\n/// @title Contribution contract\n/// @author Juliano Miyabe\n/// @notice This contract is used for donate ETH \ncontract Contribution {\n    using SafeMath for uint256;\n    event donateEtherEvent(address userAddress, uint amountEther, uint tokens);\n    Token private token;\n    mapping(address => uint256) public userEther;\n\n    constructor(Token _token) {\n        token = _token;\n    }\n\n    ///@dev this function will donate ethereum and will mint token to the donator.\n    function donateEther() payable public {\n        require(msg.value > 0 ,\"Please donate a valid amount of ETH\");\n        userEther[msg.sender] = userEther[msg.sender].add(msg.value);\n        require(token.mint(msg.sender, msg.value), \"Something went wrong\");\n        emit donateEtherEvent(msg.sender, msg.value, msg.value);\n    }\n    \n    ///@dev this function will return the amount of tokens accondingly to the address\n    ///@param userAddress is the donator address\n    function getUserAmount(address userAddress) public view returns(uint256){\n        return userEther[userAddress];\n    }\n}",
  "sourcePath": "/Users/i866712/workspace/Ethereum/wk/Contribution-Token/contracts/Contribution.sol",
  "compiler": {
    "name": "solc",
    "version": "0.7.6+commit.7338295f.Emscripten.clang"
  },
  "schemaVersion": "3.3.4",
  "updatedAt": "2021-03-15T10:49:16.938Z",
  "networkType": "ethereum",
  "devdoc": {
    "author": "Juliano Miyabe",
    "kind": "dev",
    "methods": {
      "donateEther()": {
        "details": "this function will donate ethereum and will mint token to the donator."
      },
      "getUserAmount(address)": {
        "details": "this function will return the amount of tokens accondingly to the address",
        "params": {
          "userAddress": "is the donator address"
        }
      }
    },
    "title": "Contribution contract",
    "version": 1
  },
  "userdoc": {
    "kind": "user",
    "methods": {},
    "notice": "This contract is used for donate ETH ",
    "version": 1
  }
}